:1070000055C000006EC000006CC000006AC00000E7
:1070100068C0000066C0000064C0000062C00000DC
:1070200060C000005EC00000C2C400005AC0000082
:1070300058C0000056C0000054C0000052C00000FC
:1070400050C00000DCC000004CC000004AC000007E
:1070500048C0000046C0000044C0000042C000001C
:1070600040C000003EC000003CC000003AC000002C
:1070700038C0000036C0000034C0000032C000003C
:1070800030C000002EC000002CC000002AC000004C
:1070900028C0000026C0000024C0000022C000005C
:1070A00020C000001EC000001CC0000011241FBE34
:1070B000CFEFDAE0DEBFCDBF11E0A0E0B1E0EAE75C
:1070C000FEE702C005900D92AE3AB107D9F721E074
:1070D000AEEAB1E001C01D92A43CB207E1F761D372
:1070E000C0C68ECF84E08093E9008091E80085FFE0
:1070F00003C08091F1000CC08091E8008B778093F1
:10710000E8008091E80082FDF0CF8EB38111F9CFC5
:10711000089593E09093E9009091E80095FF0AC0EC
:107120008093F1005D9884E690E09093B3018093A2
:10713000B20108959091E8009E779093E8009091B5
:10714000E80090FDEDCF9EB39111F9CF0895F8942A
:1071500010926F00109281001092850010928400AE
:1071600081E085BF15BE47985D9A289A0C9400006F
:1071700008952091B8013091B9012F5F3F4F3093AE
:10718000B9012093B801832F37FF02C08EEF831B14
:10719000880F821710F447980895479A089584B786
:1071A000877F84BF0FB6F894A895809160008861AE
:1071B00080936000109260000FBE90E880E00FB6F0
:1071C000F89490936100809361000FBE81E085BFC9
:1071D00082E085BF3F9A209A559AE1E6F0E09083DD
:1071E000108247985D9A289A109289009AEF90939E
:1071F000880080936F0083E080938100C0C31F925A
:107200001FB61F9211242F938F939F93EF93FF9399
:1072100010928500109284008091B2019091B30188
:10722000009741F001979093B3018093B201892BAD
:1072300009F45D9A8091B0019091B101009741F0FD
:1072400001979093B1018093B001892B09F4289A9A
:10725000F0E0E0E085919491019649F08091AE01D3
:107260009091AF0101969093AF018093AE01FF9191
:10727000EF919F918F912F911F901FBE1F90189596
:1072800042E061EC82E010D342E161E883E00CD39C
:1072900042E160E884E008C38091BC01982F9F77A9
:1072A000913249F59091BD019132A1F0923221F1D4
:1072B000903209F58132F9F48091E800877F80935C
:1072C000E80067E070E083E091E076D48091E80028
:1072D0008E770FC0813A79F48091E800877F8093A0
:1072E000E80067E070E083E091E012D48091E8006C
:1072F0008B778093E80008958132E9F78091E80068
:10730000877F8093E800E3C24F925F926F927F92F3
:107310008F929F92AF92BF92CF92DF92EF92FF92A5
:107320000F931F93CF93DF9384E08093E9008091C4
:10733000E80082FF25C2289884E690E09093B1018E
:107340008093B001CFDEC82F853451F58CE49DE1E8
:107350009093AF018093AE0107B600FCFDCFF99981
:10736000FECF81E180935700E8958DE0D2DE83E087
:107370008093E9009091E8008091E8008E778093F7
:10738000E80095FFF0C18091E80080FFF6C184E03D
:107390008093E9008091E8008B778093E800F0C14A
:1073A000843511F49FDEE1CF8C34F9F28035E9F2B7
:1073B000843721F484E4ADDE80E0D8CF89E5C1369E
:1073C000A9F2C134D1F48EDEC82F8CDE2C2F30E030
:1073D000322F2227330F90E0880F991F822B932B97
:1073E000092E000CAA0BBB0B8093B4019093B5013E
:1073F000A093B601B093B701B8CF83E5C03709F4C5
:10740000B5CFC33549F4C4EAD1E0899182DE21E0E9
:10741000CB3AD207D1F7ABCFC63521F481E379DE81
:1074200080E3A4CFC33731F487E873DE85E971DEEA
:107430008EE19CCFC536B9F4F0E0E0E083E095E062
:1074400080935700E89507B600FCFDCF9093570056
:10745000E89507B600FCFDCFE058FF4FE11520E7A7
:10746000F20771F782CF89E0E1E0F0E0C23779F00E
:1074700089E0F0E0E0E0C63451F089E0E3E0F0E0DC
:10748000CE3429F0C13539F489E0E2E0F0E08093B0
:10749000570084916BCFC23631F489E53ADE80E043
:1074A00038DE80E863CFC23419F0C73609F0CBC0AC
:1074B0001092AF011092AE0115DE182F13DE082FC7
:1074C00011DED82F8BEB8D0F823010F08FE34ECF73
:1074D00010926F00C73609F045C081E180935700D4
:1074E000E895C0E0BB24B3940150110920F482E078
:1074F00080936F003CCFC090B401D090B501E09074
:10750000B601F090B701D634B9F4EC2FF0E0EC29D5
:10751000FD298491FEDDCC2369F082E0C80ED11CE8
:10752000E11CF11CC092B401D092B501E092B60109
:10753000F092B701CB25D8CFD701C601B695A79554
:107540009795879578D4E5DDE2E0CE0ED11CE11C5D
:10755000F11CC092B401D092B501E092B601F09254
:10756000B701C2CF4090B4015090B5016090B60110
:107570007090B701D63441F483E0F2018093570054
:10758000E89507B600FCFDCFC0E0F12CEE24E394B3
:1075900024C0D63409F034C0FF2079F18090B401C2
:1075A0009090B501A090B601B090B7019BDD982FE7
:1075B0008C2FF4010C01E0925700E8951124F2E0C1
:1075C0008F0E911CA11CB11C8092B4019092B50148
:1075D000A092B601B092B701FE2401501109C8F67D
:1075E000D63441F485E0F20180935700E89507B660
:1075F00000FCFDCF8DE08DDD7ACF74DDC82FECCFA0
:1076000071DD682F8091B4019091B501A091B60110
:10761000B091B701B695A7959795879514D48091A9
:10762000B4019091B501A091B601B091B701029655
:10763000A11DB11D8093B4019093B501A093B60133
:10764000B093B701CACFC33471F4C091B401D091E3
:10765000B50148DD90E021E0FE010C0120935700C8
:10766000E895112482CEC33601F5C090B401D090C4
:10767000B501E090B601F090B70134DDF601E160AC
:1076800090E021E00C0120935700E8951124F2E0EE
:10769000CF0ED11CE11CF11CC092B401D092B501F7
:1076A000E092B601F092B70160CECD3661F4E09180
:1076B000B401F091B50185E080935700E89507B6D5
:1076C00000FCFDCF52CEC23551F4E091B401F091EF
:1076D000B501C591D4918D2F1CDD8C2F47CEC434BC
:1076E000D9F400DD682F8091B4019091B501A0918B
:1076F000B601B091B701B695A79597958795A3D395
:107700008091B4019091B501A091B601B091B701FB
:107710000296A11DB11D68CEC436F1F4C090B4012B
:10772000D090B501E090B601F090B701D701C60145
:10773000B695A795979587957ED3EBDC22E0C20E90
:10774000D11CE11CF11CC092B401D092B501E092B1
:10775000B601F092B7010BCECB3109F408CEB6CE0C
:107760008EB3882369F08091E80080FFF9CF809183
:10777000E8008E778093E80006CE8EB3811103CEA9
:10778000DF91CF911F910F91FF90EF90DF90CF90FD
:10779000BF90AF909F908F907F906F905F904F9031
:1077A000089520910008309101081092010810926C
:1077B000000884B714BE0FB6F894A89590916000A5
:1077C000986190936000109260000FBE81FD0AC026
:1077D00080FF1BC0F0E0E0E0459154914F3F5F4FC8
:1077E000A1F0B5DCDCDC78941092AF011092AE0110
:1077F00080910201811119C08091E0008160809325
:10780000E000A5DC90E080E0089583FFEBCF80915D
:107810000001909101018217930721F3F0E0E0E06D
:10782000859194910196F1F2DCCF6EDDEDD28091DD
:10783000AE019091AF0181349F4110F0109202018E
:1078400098DCD6CFFA01292F30E022303105C1F083
:107850002330310551F02130310509F582E190E006
:1078600022E931E0318320830895882371F081304B
:1078700089F08230A1F482E290E02AE031E0F2CF98
:107880008EE390E024E531E0EDCF84E090E020E568
:1078900031E0E8CF82E290E02CE231E0E3CF90E00B
:1078A00080E030E020E0DECF8093E900EBEEF0E016
:1078B000808181608083EDEEF0E010826093EC00C7
:1078C00040838091EE00881F8827881F089580914B
:1078D000BC0187FF11C08091E80082FF06C0809143
:1078E000E8008B778093E80003C08EB38111F3CF5B
:1078F00008958EB38823E1F38091E80080FFF9CFEB
:107900008091E8008E77EECF0F931F93CF93DF9394
:1079100041D048D0C8EDD0E088818F7788838881B6
:107920008068888388818F7D888319BC1EBA1092F5
:10793000BA0100EE10E0F80180818B7F808388819E
:107940008160888342E060E080E0AEDFE1EEF0E05D
:1079500080818E7F8083E2EEF0E080818160808391
:10796000808188608083F80180818E7F8083888118
:1079700080618883DF91CF911F910F910895E7ED8A
:10798000F0E08081816080838AE482BF81E080931F
:10799000BB01BACFE8EDF0E080818E7F808310924A
:1079A000E20008951092DA001092E10008951F920B
:1079B0000F920FB60F9211242F933F934F935F9323
:1079C0006F937F938F939F93AF93BF93EF93FF93A7
:1079D0008091DA0080FF17C08091D80080FF13C02B
:1079E0008091DA008E7F8093DA008091D90080FF49
:1079F0004EC080E189BD82E189BD09B400FEFDCFA2
:107A000081E08EBB00D28091E10080FF17C08091A1
:107A1000E20080FF13C08091E2008E7F8093E2003D
:107A20008091E20080618093E2008091D8008062C2
:107A30008093D80019BC85E08EBBE5D18091E10030
:107A400084FF30C08091E20084FF2CC080E189BDBA
:107A500082E189BD09B400FEFDCF8091D8008F7D01
:107A60008093D8008091E1008F7E8093E100809127
:107A7000E2008F7E8093E2008091E200816080933B
:107A8000E2008091BA01882331F084E009C019BC7A
:107A90001EBAB9D1B8CF8091E30087FDF6CF81E05F
:107AA0008EBBB1D18091E10083FF21C08091E200C3
:107AB00083FF1DC08091E100877F8093E10082E019
:107AC0008EBB1092BA018091E1008E7F8093E1001D
:107AD0008091E2008E7F8093E2008091E2008061DD
:107AE0008093E20042E060E080E0DEDE8CD1FF9136
:107AF000EF91BF91AF919F918F917F916F915F9126
:107B00004F913F912F910F900FBE0F901F9018959E
:107B1000FC01CB012091C2013091C3012617370728
:107B200090F0009729F42091E8002E772093E80048
:107B300040E0009751F4411108C08091E80082FFB5
:107B400030C080E00895C901F3CF2EB3222391F114
:107B5000253061F12091E80023FD2AC02091E80042
:107B600022FDEBCF2091E80020FFE3CF3091F3001E
:107B70002091F200009719F02830310558F041E0CB
:107B80002830310509F040E02091E8002E7720935D
:107B9000E800CFCF41914093F10001972F5F3F4F15
:107BA000E9CF8EB3882331F0853039F683E008952C
:107BB00081E0089582E00895FC01CB01009729F44B
:107BC0002091E8002B772093E800009731F4809112
:107BD000E80080FF1BC080E008952EB32223F9F057
:107BE0002530C9F02091E80023FD17C02091E8005E
:107BF00022FFEBCF3091F3002091F200232B01F311
:107C00002091F10021930197A9F7DACF8EB3882351
:107C100031F08530E1F683E0089581E0089582E057
:107C200008950F931F93CF93DF9300D0CDB7DEB7A6
:107C30008CEB91E0FC0101962091F100208321E082
:107C4000843C9207B9F728DB8091E80083FF29C0C4
:107C50008091BC019091BD019A3018F5E92FF0E0B8
:107C6000ED5CF04CE2C08238E1F48091C001877095
:107C70008093E9008091EB0085FB882780F91092C2
:107C8000E9009091E800977F9093E8008093F100DD
:107C90001092F1008091E8008E77B1C0823009F433
:107CA00092C08091E80083FF0AC08091EB0080625F
:107CB0008093EB008091E800877F8093E8000F902D
:107CC0000F90DF91CF911F910F9108959091EB004C
:107CD00090619093EB0021E030E001C0220F8A9583
:107CE000EAF72093EA001092EA008091EB008860A6
:107CF0007FC08111D6CF1091BE011F770FB7F894C6
:107D00008091E800877F8093E800E1DD8091E800C2
:107D100080FFFCCF8091E3008078812B8093E3008B
:107D200080688093E30082E0111183E08EBB0FBF77
:107D3000B8CF8058823008F0B4CFAE014F5F5F4FAC
:107D40006091C0018091BE019091BF017BDDBC01BB
:107D5000892B09F4A6CF8091E800877F8093E80003
:107D600089819A81D5DE8091E8008B778093E80045
:107D700098CF803809F095CF8091E800877F809375
:107D8000E8008091BA018093F10084CF811189CFFE
:107D90009091BE01923008F084CF8091E800877FF7
:107DA0008093E8009093BA0192DD8091BA01882314
:107DB00011F084E005C08091E30087FDFACF81E0F7
:107DC0008EBB5EDA6ECF8091BE01811113C08091AF
:107DD000C001877009F465CF8093E9002091EB0022
:107DE00020FF08C0933009F071CF8091EB008062D2
:107DF0008093EB001092E9008091E800877F8093E8
:107E0000E80065DD4ECF0895CF938EB3882359F0F7
:107E1000C091E900C7701092E9008091E80083FDED
:107E200000DFC093E900CF910895EE0FFF1F05908A
:107E3000F491E02D0994F999FECF92BD81BDF89A95
:107E4000992780B50895262FF999FECF1FBA92BDC4
:107E500081BD20BD0FB6F894FA9AF99A0FBE01962B
:107E60000895F894FFCF333E4E3E513E4E3E513E74
:0A7E7000793E993E513EB93EC63EF0
:107E7A007777010000000000000822034200610039
:107E8A0072006500200043006F006E0064007500F8
:107E9A006300740069007600650000002203540044
:107EAA006F00750063006800200042006F006100E7
:107EBA007200640020002000200020002000000042
:107ECA000403090409023E00020100803209040089
:107EDA000001020201000524001001042402040525
:107EEA0024060001070582030800FF0904010002B5
:107EFA000A000000070504021000010705830210AA
:107F0A00000112011001020000086E2A030001009C
:0E7F1A00020100014341544552494E4100000E
:040000030000700089
:00000001FF
